:020000040000FA
:100000000C9454050C947C050C947C050C947C0594
:100010000C947C050C947C050C947C050C947C055C
:100020000C947C050C947C050C947C050C947C054C
:100030000C947C050C947C050C947C050C947C053C
:100040000C9430160C947C050C94FE150C94D81569
:100050000C947C050C947C050C947C050C947C051C
:100060000C947A160C947C0500000000003E5B4F57
:100070005B3E3E6B4F6B3E1C3E7C3E1C183C7E3C08
:10008000181C577D571C1C5E7F5E1C00183C180016
:10009000FFE7C3E7FF0018241800FFE7DBE7FF30A6
:1000A000483A060E2629792926407F050507407F14
:1000B00005253F5A3CE73C5A7F3E1C1C08081C1C87
:1000C0003E7F14227F22145F5F005F5F06097F017D
:1000D0007F006689956A606060606094A2FFA29468
:1000E00008047E040810207E201008082A1C080836
:1000F0001C2A08081E101010100C1E0C1E0C303884
:100100003E3830060E3E0E06000000000000005F84
:1001100000000007000700147F147F14242A7F2AA0
:100120001223130864623649562050000807030062
:10013000001C2241000041221C002A1C7F1C2A08AE
:10014000083E080800807030000808080808000011
:1001500060600020100804023E5149453E00427F85
:10016000400072494949462141494D331814127FD4
:100170001027454545393C4A494931412111090774
:100180003649494936464949291E000014000000F5
:1001900040340000000814224114141414140041C7
:1001A00022140802015909063E415D594E7C121184
:1001B000127C7F494949363E414141227F414141BC
:1001C0003E7F494949417F090909013E4141517337
:1001D0007F0808087F00417F41002040413F017FA8
:1001E000081422417F404040407F021C027F7F0470
:1001F00008107F3E4141413E7F090909063E4151B9
:10020000215E7F09192946264949493203017F01A8
:10021000033F4040403F1F2040201F3F4038403FA9
:10022000631408146303047804036159494D4300BF
:100230007F4141410204081020004141417F0402F6
:10024000010204404040404000030708002054548D
:1002500078407F284444383844444428384444286B
:100260007F385454541800087E090218A4A49C78BE
:100270007F0804047800447D40002040403D007F1A
:100280001028440000417F40007C047804787C08FA
:100290000404783844444438FC18242418182424CE
:1002A00018FC7C08040408485454542404043F44B3
:1002B000243C4040207C1C2040201C3C4030403CE2
:1002C00044281028444C9090907C4464544C440042
:1002D00008364100000077000000413608000201A6
:1002E0000204023C2623263C1EA1A161123A404092
:1002F000207A38545455592155557941225454780F
:1003000042215554784020545579400C1E527212A7
:100310003955555559395454545939555454580030
:1003200000457C410002457D420001457C407D1234
:1003300011127DF0282528F07C5455450020545496
:100340007C547C0A097F4932494949323A44444441
:100350003A324A4848303A4141217A3A424020787C
:10036000009DA0A07D3D4242423D3D4040403D3C7D
:1003700024FF2424487E4943662B2FFC2F2BFF09A2
:1003800029F620C0887E0903205454794100004496
:100390007D413048484A32384040227A007A0A0A81
:1003A000727D0D19317D2629292F282629292926F4
:1003B00030484D4020380808080808080808382F39
:1003C00010C8ACBA2F102834FA00007B00000814C3
:1003D0002A142222142A14085500550055AA55AA99
:1003E00055AAFF55FF55FF000000FF00101010FF39
:1003F00000141414FF001010FF00FF1010F010F094
:10040000141414FC001414F700FF0000FF00FF1484
:1004100014F404FC141417101F10101F101F1414D0
:10042000141F00101010F0000000001F101010101A
:100430001F10101010F010000000FF10101010100E
:1004400010101010FF10000000FF140000FF00FF4C
:1004500000001F10170000FC04F4141417101714E8
:1004600014F404F40000FF00F7141414141414140A
:10047000F700F7141414171410101F101F1414147D
:10048000F4141010F010F000001F101F0000001FE7
:1004900014000000FC140000F010F01010FF10FF1A
:1004A000141414FF141010101F00000000F010FFAF
:1004B000FFFFFFFFF0F0F0F0F0FFFFFF0000000093
:1004C00000FFFF0F0F0F0F0F3844443844FC4A4A17
:1004D0004A347E02020606027E027E0263554941CC
:1004E000633844443C04407E201E2006027E020203
:1004F00099A5E7A5991C2A492A1C4C7201724C3017
:100500004A4D4D303048784830BC625A463D3E49ED
:100510004949007E0101017E2A2A2A2A2A44445F91
:10052000444440514A444040444A51400000FF0185
:1005300003E080FF000008086B6B08361236243693
:10054000060F090F060000181800000010100030F8
:1005500040FF0101001F01011E00191D1712003C80
:100560003C3C3C0000000000000103070F1F3F7FE0
:100570000080C0E0F0F8FCFE00000000240027002E
:100580002A00DB40A4A62EAF2000A1C8D300408DD6
:10059000AED580A800000000250028002B00000038
:1005A000600000000000000000000000000000E00B
:1005B0000000000000000000000000000001E0005A
:1005C00000000000000000000000000001F000003A
:1005D000000000000000000000000003F000000028
:1005E0000000000000000000000007F00000000014
:1005F00000000000000000000007F80000000000FC
:1006000000000000000000000FF800000003C00020
:100610007E000001E0007F0FF800000003C000FE34
:10062000000001E000FFEFF800000003C000FE0042
:100630000001E000FFFFF800000003C000F0000030
:10064000000F007FFE7FC0000003C000F00000002C
:100650000F003FFE7FF83FF1FBCFFCFEF3BC3DEF08
:10066000E01FFE7FFF7FFBFFDFFEFEFFBC3DEFE0F4
:100670001FC6FFFF7FFBFFDFFEFEFFBC3DEFE00F6D
:10068000E3C7FE787BC3DE1EF0FFBC3DEF0007FF33
:1006900087FC787BC3DE1EF0F83C3DEF0001FFFFD6
:1006A000F0007BC3C01EF0F03C3DEF0001F37FE0A3
:1006B0003FFBC3CFFEF0F03C3DEF0003E33F807F04
:1006C000FBC3DFFEF0F03C3DEF0007E73C00787B2A
:1006D000C3DE1EF0F03C3DEF0007FFBE00787BC399
:1006E000DE1EF0F03C3DEF0007FFFE00787BC3DE2E
:1006F0001EF0F03C3DEF000FFFFE007FFBFFDFFE32
:10070000F0F03FFDEFE00FFFFF007FFBFFDFFEF0AB
:10071000F03FFDEFE00FF9FF003E79F9CF9EF0F0DA
:100720001F3DE7E01FF1FF00000000000000000097
:100730000000001F80FF007FFFFFFFFFFFFFFFFFA4
:10074000FFE01C007F007FFFFFFFFEB46D888D1867
:10075000E000001F007FFFFFFFFE95AD7DB577E055
:1007600000000F007FFFFFFFFEA5AD9D8D19E0008B
:100770000006007FFFFFFFFEB5ADEDB57EE0000097
:100780000000000180000000000000000000038065
:1007900000000000000000000007C0000000000092
:1007A0000000000007C00000000000000000000F73
:1007B000C00000000000000000001FE0000000007A
:1007C00000000000001FE00000000000000000002A
:1007D0003FE00000000000000000003FF0000000CB
:1007E0000000000000007FF0000000000000001F7B
:1007F000F87FF0000000000000003FFE7FF00000E6
:1008000000000000003FFF7FF0000000000000003B
:100810001FFFFBE0000000000000000FFFF9FFC019
:100820000000000000000FFFF9FFF80000000000CA
:100830000007FFF1FFFF00000000000003FC73FF52
:10084000FF80000000000001FE3FFFFF800000006D
:10085000000000FF1E0FFF000000000000007FFEF0
:100860001FFC000000000000003FFFFFF800000038
:10087000000000000FDFFFE0000000000000001F8C
:1008800019FFC0000000000000003F3CFF00000016
:1008900000000000007E7CF8000000000000000066
:1008A0007FFE7C0000000000000000FFFFFC000055
:1008B000000000000000FFFFFE000000000000003C
:1008C00000FFFFFE0000000000000001FFEFFE003F
:1008D00000000000000001FFCFFE0000000000004B
:1008E0000003FF07FE0000000000000003FC07FEFD
:1008F0000000000000000003F003FE000000000004
:100900000000018000FE0000000000000000000068
:100910007E000000000000000000003E000000001B
:100920000000000000000C00000000000007800034
:10093000FC000003C0000000078001FC000003C0B1
:10094000000000078001FC000003C00000000780D9
:1009500001E00000001E000000078001E000000030
:100960001E007FE3F79FF9FDE7787BDFC0FFF7FF0D
:10097000BFFDFDFF787BDFC0FFF7FFBFFDFDFF7808
:100980007BDFC0F0F787BC3DE1FF787BDE00F0F74E
:1009900087BC3DE1F0787BDE0000F787803DE1E039
:1009A000787BDE007FF7879FFDE1E0787BDE00FF4C
:1009B000F787BFFDE1E0787BDE00F0F787BC3DE123
:1009C000E0787BDE00F0F787BC3DE1E0787BDE007D
:1009D000F0F787BC3DE1E0787BDE00FFF7FFBFFD6D
:1009E000E1E07FFBDFC0FFF7FFBFFDE1E07FFBDF62
:1009F000C07CF3F39F3DE1E03E7BCFC000000000F0
:100A000000000000000000FFFFFFFFFFFFFFFFFFEF
:100A1000FFC0FFFFFFFFFD68DB111A31C0FFFFFFC2
:100A2000FFFD2B5AFB6AEFC0FFFFFFFFFD4B5B3B57
:100A30001A33C0FFFFFFFFFD6B5BDB6AFDC0535342
:100A4000443133303620616C6C6F636174696F6E52
:100A5000206661696C656400000000080002010006
:100A60000003040700000000000000002200FF2136
:100A700000000000002300260029000404040404F0
:100A8000040404020202020202030303030303013B
:100A90000204081020408001020408102001020412
:100AA000081020009917F01D11241FBECFEFD8E0C9
:100AB000DEBFCDBF11E0A0E0B1E0E2E4F3E402C0AC
:100AC00005900D92AC37B107D9F723E0ACE7B1E060
:100AD00001C01D92A834B207E1F715E0C3E5D5E0E7
:100AE00004C02197FE010E945D20C235D107C9F7DD
:100AF0000E943C180C9494210C9400000895CF920D
:100B0000DF92EF92FF92CF93DF93B091EC02A0E0DF
:100B10008111AB2F8091ED0290E0880F991FAC01FD
:100B20004F58554FC090F202D090F302E090F4027B
:100B3000F090F50230E020E0FA01C591D491E8810F
:100B4000B90190E080E0EB23EA130AC02F5F3F4F2A
:100B50006C157D058E059F0578F36FEF7FEFCB0158
:100B6000DF91CF91FF90EF90DF90CF90089508959F
:100B70000895AF92BF92CF92DF92EF92FF920F93C0
:100B80001F93CF93DF936C017B018B01040F151F23
:100B9000EB015E01AE18BF08C017D10759F069918B
:100BA000D601ED91FC910190F081E02DC6010995EF
:100BB000892B79F7C501DF91CF911F910F91FF909C
:100BC000EF90DF90CF90BF90AF900895FC01538DD0
:100BD000448D252F30E0842F90E0821B930B541717
:100BE00010F0CF96089501970895FC01918D828DA4
:100BF000981761F0A28DAE0FBF2FB11D5D968C913D
:100C0000928D9F5F9F73928F90E008958FEF9FEF7B
:100C10000895FC01918D828D981731F0828DE80F37
:100C2000F11D858D90E008958FEF9FEF0895FC01F1
:100C3000918D228D892F90E0805C9F4F821B9109BE
:100C40008F739927089588E492E00E94170621E0A7
:100C5000892B09F420E0822F089580E090E0892B11
:100C600029F00E94230681110C9400000895FC01D4
:100C7000A48DA80FB92FB11DA35ABF4F2C91848DFD
:100C800090E001968F739927848FA689B7892C935A
:100C9000A089B1898C91837080648C93938D848DAD
:100CA000981306C00288F389E02D80818F7D8083B0
:100CB0000895EF92FF920F931F93CF93DF93EC0170
:100CC00081E0888F9B8D8C8D98131AC0E889F989F3
:100CD000808185FF15C09FB7F894EE89FF896083F6
:100CE000E889F98980818370806480839FBF81E077
:100CF00090E0DF91CF911F910F91FF90EF900895B9
:100D0000F62E0B8D10E00F5F1F4F0F731127E02E93
:100D10008C8D8E110CC00FB607FCFACFE889F989CB
:100D2000808185FFF5CFCE010E943706F1CFEB8D94
:100D3000EC0FFD2FF11DE35AFF4FF0829FB7F8949F
:100D40000B8FEA89FB8980818062CFCFCF93DF93BD
:100D5000EC01888D8823B9F0AA89BB89E889F989D3
:100D60008C9185FD03C0808186FD0DC00FB607FC08
:100D7000F7CF8C9185FFF2CF808185FFEDCFCE013B
:100D80000E943706E9CFDF91CF910895833081F03B
:100D900028F4813099F08230A9F008958730A9F0C5
:100DA0008830C9F08430B1F4809180008F7D03C019
:100DB000809180008F7780938000089584B58F772D
:100DC00084BD089584B58F7DFBCF8091B0008F776F
:100DD0008093B00008958091B0008F7DF9CF1F936C
:100DE000CF93DF93282F30E0F901E85AF54F849133
:100DF000F901E157F54FD491F901E558F54FC49148
:100E0000CC23A9F0162F81110E94C606EC2FF0E02A
:100E1000EE0FFF1FEC56FA4FA591B4918FB7F894DF
:100E2000EC91111108C0D095DE23DC938FBFDF91C8
:100E3000CF911F910895DE2BF8CFCF93DF9390E0F1
:100E4000FC01E157F54F24918558954FFC018491A1
:100E50008823D1F090E0880F991FFC01E858FA4FE1
:100E6000A591B491FC01EC56FA4FC591D491623032
:100E700071F49FB7F8943C91822F809583238C93D3
:100E8000E8812E2B28839FBFDF91CF9108958FB7E4
:100E9000F894EC912E2B2C938FBFF6CF3FB7F8949C
:100EA00080912D0290912E02A0912F02B0913002DC
:100EB00026B5A89B05C02F3F19F00196A11DB11DB5
:100EC0003FBFBA2FA92F982F8827BC01CD01620FF1
:100ED000711D811D911D42E0660F771F881F991FAC
:100EE0004A95D1F708958F929F92AF92BF92CF9279
:100EF000DF92EF92FF924B015C010E944E076B0163
:100F00007C010E944E076C197D098E099F09683E7D
:100F1000734081059105A8F321E0821A9108A10888
:100F2000B10888EEC80E83E0D81EE11CF11C8114C4
:100F30009104A104B10429F7FF90EF90DF90CF90C6
:100F4000BF90AF909F908F900895CF92DF92EF92D5
:100F5000FF920F931F93CF93DF93CDB7DEB7C054AB
:100F6000D1400FB6F894DEBF0FBECDBF2FB7F894B7
:100F70008091400290914102A0914202B0914302BF
:100F80002FBF4091EE025091EF026091F0027091FC
:100F9000F1028C019D01041B150B260B370BB901C7
:100FA000A801403D57406105710590F48091F6021B
:100FB000C05CDE4F0FB6F894DEBF0FBECDBFDF9131
:100FC000CF911F910F91FF90EF90DF90CF900895F8
:100FD0008093EE029093EF02A093F002B093F1029F
:100FE0001092E9021092E8021092E7021092E602D3
:100FF0001092E50262E08091EA020E941D0761E022
:1010000070E080E090E00E94730761E08091EA0266
:101010000E941D0760E08091EA020E94EF06809125
:10102000EB028551823020F58BE291E10197F1F7D7
:1010300062E08091EA020E941D078091F70290E031
:101040008230910538F0880F991F880F991F0597F6
:101050000197F1F7F89480E00E947F056F3F7F4F82
:101060008F4F9F4F61F41092F602789480E0A0CFEA
:1010700064E170E080E090E00E947307D9CF81E0E6
:101080000E947F056F3F7F4F8F4F9F4F61F38E010F
:101090000F5F1F4F6E018FEBC81A8EEFD80A7801D1
:1010A00080E00E947F05F7016083718382839383D0
:1010B00081E00E947F05F7016483758386839783AF
:1010C000F8E0EF0EF11CEC14FD0451F7789430E0D9
:1010D00020E0F801C080D180E280F3804481558116
:1010E00066817781FFEFCF16DF06EF06FF0631F04E
:1010F0004F3F8FEF58076807780719F41092F602F0
:10110000B5CFF90183E0F595E7958A95E1F7EB51C5
:10111000FD4F8081880FC416D506E606F70610F14C
:1011200080832F5F3F4F085F1F4F2832310589F6BC
:101130004091E9022091E5028091E602280F3327D1
:10114000331F8091E702280F311D8091E802820F42
:10115000932F911D99274817190681F681E08093F6
:10116000F60226CF8160DCCFEF92FF920F931F93A0
:10117000CF93DF93EC01EC80FD806E157F050CF0C2
:1011800070C057FF04C0240F351F50E040E08E812F
:101190009F81FA01E20FF31F8E179F071CF49C0139
:1011A000241B350B121613060CF05BC0922F842FF4
:1011B0008695869586958E9DD0018F9DB00D1124C4
:1011C0006A0F7B1FAF8DB8A1A60FB71F477049F1FB
:1011D00088E0841B482F682F70E0FB01E059FA4F2C
:1011E000E491281708F063C0621B71092FEF30E00B
:1011F00002C0359527956A95E2F7E2230130110583
:1012000039F0B0F10230110561F58C91E82702C088
:101210008C91E82BEC93941720F12C813D81A20F47
:10122000B31FE92FE41BE83078F00230110521F5F7
:101230008E2F9C9190959C932C813D81A20FB31F82
:1012400088508830B0F7E770EE2359F0F0E0E859A5
:10125000FA4FE49101301105F9F010F10230110557
:1012600019F1DF91CF911F910F91FF90EF900895A9
:10127000E0958C91E823CECF81E00115110509F4AA
:1012800080E081959E2F8C932C813D81A20FB31F0E
:1012900098509830C0F7D7CF8C91E82BEC93E1CFE2
:1012A000E0958C91E823FACF8C91E827F7CF0130B5
:1012B000110509F4ADCFE0F20230110509F4A5CF14
:1012C000AE0DBF1DAECF0F931F93CF93DF9377FF6C
:1012D00004C0260F371F70E060E0DC011496CD914A
:1012E000DC91FB01E20FF31FCE17DF071CF49E0118
:1012F000261B370B121613064CF5FA0157FD3796CD
:10130000A3E0F595E795AA95E1F7EC9FD001ED9F55
:10131000B00DFC9FB00D11246A0F7B1FDC015F969E
:10132000ED91FC91E60FF71F4770552781E090E0A3
:1013300001C0880F4A95EAF7482F0130110559F08E
:10134000A8F02E0F3F1F02301105E1F0DF91CF9181
:101350001F910F9108952E0F3F1FE217F307B1F36E
:101360008191DF011197842B8C93F7CF80952E0FFD
:101370003F1FE217F30751F39191DF011197982373
:101380009C93F7CFE217F30709F38191DF011197DF
:1013900084278C93F7CF0F931F93FA01DC015696A5
:1013A0004C9156974230E9F04330A1F1413061F55C
:1013B00014964D915C91DA01AE1BBF0BFD01E21B4F
:1013C000F30B77FD0BC0DC0116964D915C91641711
:1013D000750724F4AB01BF010E9463091F910F91AF
:1013E000089514964D915C91DA01A61BB70BBD01CF
:1013F00061507109DC0116964D915C91DA01AE1BCA
:10140000BF0BFD01E21BF30B77FDE8CFAF010E949C
:10141000B408E4CF16964D915C91DA01A61BB70B88
:10142000BD0161507109CDCF0F931F93FA01DC010B
:1014300056964C9156974230A9F0433091F1413085
:1014400019F514964D915C91DA01AE1BBF0BFD01AD
:101450003197F7FD04C0AB01BF010E94B4081F9192
:101460000F91089514964D915C91DA01A61BB70B6C
:10147000BD01DC0116964D915C91DA01AE1BBF0BEC
:10148000FD013197621B730BF7FDE9CFDC01169666
:101490004D915C91E417F50714F7AF010E946309C1
:1014A000DECF16964D915C91DA01A61BB70BBD01FC
:1014B000621B730BCECFFC0177FD64C080859185E4
:1014C000681779070CF05EC057FD5CC08285938574
:1014D000481759070CF056C086898230B1F0833026
:1014E00029F1813041F484819581841B950BAB01F6
:1014F000BC01615071092130310509F108F443C084
:101500002230310509F463C0089584819581DC019E
:10151000A61BB70BBD016150710986819781DC0163
:10152000A41BB50BAD0141505109E5CF86819781D0
:10153000861B970BBA01AC0141505109DCCFCA019F
:1015400057FD0796A3E095958795AA95E1F7A481A5
:10155000B5818A9F90018B9F300D9A9F300D112489
:10156000620F731F078CF0A1E02DE60FF71F477085
:10157000552721E030E001C0220F4A95EAF780812B
:10158000822B80830895CA0157FD079633E0959515
:1015900087953A95E1F7A481B5818A9F90018B9F49
:1015A000300D9A9F300D1124620F731F078CF0A12C
:1015B000E02DE60FF71F4770552781E090E001C04E
:1015C000880F4A95EAF7809590818923DACFCA017E
:1015D00057FD079623E0959587952A95E1F7A48115
:1015E000B5818A9F90018B9F300D9A9F300D1124F9
:1015F000620F731F078CF0A1E02DE60FF71F4770F5
:10160000552721E030E001C0220F4A95EAF780819A
:101610008227B7CF08958EBD00000DB407FEFDCF21
:101620008EB508958CBD9DBD08950895FC0163702D
:10163000668B8481958126813781613039F06330F2
:1016400029F0918780873387228708953187208703
:101650009387828708952F923F924F925F926F9265
:101660007F928F929F92AF92BF92CF92DF92EF9232
:10167000FF920F931F93CF93DF93CDB7DEB76A9797
:101680000FB6F894DEBF0FBECDBF9A8F898F7A83D5
:1016900069834A01D22E18870F833701BC2CDC01E5
:1016A00059962D913C915A972115310509F015C194
:1016B00018968D919C911997681779070CF0D7C1EE
:1016C0001A968D919C91481759070CF0D0C14C2C5B
:1016D000512CB6E0CB9E600D711D11247C876B8769
:1016E000161617060CF0C3C1EA2DF0E0FA87E98759
:1016F00093E0EE0FFF1F9A95E1F7F88BEF87CF018C
:10170000840F951F181619060CF0B1C1A98DBA8D5A
:1017100058968C91811104C0BFEABD1508F4D3948A
:10172000A98DBA8DED91FC9111970284F385E02D7E
:10173000CD010995B5E0DB9EC0011124E981FA8154
:10174000FC83EB83312C212C9C0128593F4F388F8F
:101750002F8B4A2D50E05E8B4D8BEF89F88DE20D7B
:10176000F31D44919E828D82D12CC12C69817A8196
:10177000620D731D7A8B698B842F90E09C8B8B8B11
:10178000E98DFA8DA081B18140FF82C0F1E0BF12E6
:101790006FC0AF126DC01C96ED91FC912F81388502
:1017A000A4014C0D5D1D69897A89898D9A8D0995F1
:1017B000EB89FC89F595E7954E2F5FEFC51AD50AA1
:1017C0006D817E818D899E89680F791F7E836D83EF
:1017D00098E0C916D10481F6AFEF2A1A3A0AEB81D4
:1017E000FC81E40DF51DFC83EB83F5E02F1631043D
:1017F00009F0B3CF2F81388526153705B9F0A98DAB
:10180000BA8DED91FC91B1E0BB1257C0AB1255C03F
:1018100069817A816B5F7F4F0088F189E02D8301B8
:1018200028E030E0A401898D9A8D0995A98DBA8DA3
:10183000ED91FC9111970688F789E02DCD016A960C
:101840000FB6F894DEBF0FBECDBFDF91CF911F91D1
:101850000F91FF90EF90DF90CF90BF90AF909F904F
:101860008F907F906F905F904F903F902F90099452
:101870001E96ED91FC91EF80F88409851A859201FE
:101880004D815E816B817C81898D9A8D099590CF88
:101890002F8138852615370509F48ACF31E0B31238
:1018A00007C0A31205C01C96ED91FC91930178CF5F
:1018B0001E96ED91FC917301E0CF6B857C856419D8
:1018C00075090684F785E02D73010F85188992014B
:1018D000A401898D9A8D0995A9CFF9013496949127
:1018E000329745915491D91AB7E0DB9E400D511DB6
:1018F0001124F901259134913C8B2B8BFA01259011
:101900003490FA013296749031963491398B329634
:1019100064903196449041E04C1518F04A1508F057
:101920007FC0662D062C000C770B7C836B83842D87
:10193000042C000C990B9E838D83A98DBA8DED919B
:10194000FC9111970284F385E02DCD010995512C6E
:10195000D12CC12CEA2DF0E0FA87E9872B2D30E05D
:101960003C872B87A401440D511D47FC5A95588F85
:101970004F8B69817A81660D711D67FC7A957E8730
:101980006D877989C71608F051CF2C2D30E04D8135
:101990005E81420F531FA985BA854A9FC0014B9FA4
:1019A000900D5A9F900D1124FC01E80DF91DF88B44
:1019B000EF87852D612C4F89588D420F531F5E8B09
:1019C0004D8B671408F050C044244394480E877030
:1019D00041F4C1010196EB89FC89E20DF31DD4901D
:1019E0001C01D7FE19C0A98DBA8DED91FC91662D11
:1019F00070E0B1E0BB1219C0AB1217C02D853E8557
:101A0000620F731F0484F585E02D2F8138854D8981
:101A10005E89898D9A8D0995DD0C6394842DD1CFD3
:101A20001E821D821C821B8288CF4B815C81640FC9
:101A3000751FAB85BC856A9FC0016B9F900D7A9F17
:101A4000900D112469817A81680F791F0684F785CA
:101A5000E02DEF80F88409851A859D014F8558890E
:101A6000898D9A8D0995D8CF570CC3948ACF6A96E1
:101A70000FB6F894DEBF0FBECDBFDF91CF911F919F
:101A80000F91FF90EF90DF90CF90BF90AF909F901D
:101A90008F907F906F905F904F903F902F90089520
:101AA0008F929F92AF92CF92EF92FF920F931F93DC
:101AB000CF93DF93EC01262F898D9A8D009709F043
:101AC00051C06A30D1F41D861C868D8948E0849F00
:101AD000900111248E859F85820F931F9F878E878B
:101AE00081E090E0DF91CF911F910F91FF90EF90F7
:101AF000CF90AF909F908F9008956D3089F3CC88F0
:101B0000AD888F898823C1F08C859D8536E0C39E82
:101B1000800D911D1124488559854817590764F493
:101B20004E855F851D861C8638E0A39EC00111246A
:101B3000840F951F9F878E87EA88FB8808891989FB
:101B40004E855F856C857D85CE010E942B0B2C898F
:101B50008C859D8546E0249F800D911D11249D87D5
:101B60008C87BECF6A3069F41D861C86FC013896CE
:101B7000E4912D898E859F85E29F800D911D112412
:101B8000ADCF6D3009F4ACCFFC01349634916317BE
:101B900008F4A6CF3296E491E61708F4A1CFFC0131
:101BA000329685909490462F431B342F47E0349F04
:101BB000800C911C1124F401329634913196E491F9
:101BC0003323A9F1EE2399F1CC88F4013596E49101
:101BD000AD884F89442301F10E2E000CFF0BE30F5B
:101BE000F11DCE9EA001CF9E500D11246C857D85E8
:101BF000460F571F68857985641775076CF44E8505
:101C00005F851D861C86FC013896E491AE9E400DD2
:101C1000511D11245F874E87EA88FB88088919893E
:101C20004E855F856C857D85CE010E942B0BF4016E
:101C30003496E4912C898C859D85E29F800D911DC1
:101C400011248DCF6F927F928F929F92AF92BF920D
:101C5000CF92DF92EF92FF920F931F93CF93DF9378
:101C6000EC016B015A0139014801E881F9810284D4
:101C7000F385E02D0995E881F9810288F389E02D4B
:101C800087019301A501B601CE010995A501480D73
:101C9000591D41505109E881F9810288F389E02DED
:101CA0009301B601CE010995E881F9810088F18997
:101CB000E02D9401A501B601CE010995C60CD71CF3
:101CC000B60161507109E881F9810088F189E02D40
:101CD0009401A501CE010995E881F9810688F7896B
:101CE000E02DCE01DF91CF911F910F91FF90EF90EA
:101CF000DF90CF90BF90AF909F908F907F906F902C
:101D000009946F927F928F929F92AF92BF92CF92DF
:101D1000DF92EF92FF920F931F93CF93DF935C01BB
:101D2000EB016A01490138018701DC01ED91FC9169
:101D30006217730719F5641675062CF0962D872D1A
:101D40003A01C92ED82E9601261937092F5F3F4F29
:101D5000048CF58DE02DA301BE01C5010995DF912D
:101D6000CF911F910F91FF90EF90DF90CF90BF9098
:101D7000AF909F908F907F906F9008954615570574
:101D800091F42617370724F0892D4B01C22FD82F45
:101D90009E01281939092F5F3F4F068CF78DE02DE2
:101DA000A601B401DACF0284F385E02D0995D501AF
:101DB000ED91FC910488F589E02D83019401A60141
:101DC000BE01C5010995D501ED91FC910688F78901
:101DD000E02DC501DF91CF911F910F91FF90EF9002
:101DE000DF90CF90BF90AF909F908F907F906F903B
:101DF0000994EF92FF920F931F93DC011A960D91B5
:101E00001C911B9718962D913C911997ED91FC917F
:101E100000A0F1A1E02D7B0150E040E070E060E027
:101E200009951F910F91FF90EF9008954F925F9247
:101E30006F927F928F929F92AF92BF92CF92DF92DA
:101E4000EF92FF920F931F93CF93DF936C012B01BF
:101E50005A0139014801DC01ED91FC910284F385BE
:101E6000E02D0995E201640C751CD601ED91FC9101
:101E7000C615D7055CF40088F189E02D870194012F
:101E8000A501BE01C60109952196EFCF0688F78905
:101E9000E02DC601DF91CF911F910F91FF90EF9040
:101EA000DF90CF90BF90AF909F908F907F906F907A
:101EB0005F904F9009948F929F92AF92BF92CF9272
:101EC000DF92EF92FF920F931F93CF93DF93EC017A
:101ED0005B014A016901E881F9810284F385E02D03
:101EE000099595012C0D3D1D21503109E881F9819D
:101EF0000488F589E02D78018401A401B501CE01A3
:101F00000995E881F9810688F789E02DCE01DF91F6
:101F1000CF911F910F91FF90EF90DF90CF90BF90E6
:101F2000AF909F908F9009948F929F92AF92BF92A3
:101F3000CF92DF92EF92FF920F931F93CF93DF9395
:101F4000EC015B014A0169017801E881F9810284B1
:101F5000F385E02D0995C80CD91C860101501109A3
:101F6000E881F9810488F589E02D9501A401B50186
:101F7000CE010995E881F9810688F789E02DCE0127
:101F8000DF91CF911F910F91FF90EF90DF90CF9055
:101F9000BF90AF909F908F900994EF92FF920F9314
:101FA0001F93DC01ED91FC9100A0F1A1E02D0995BA
:101FB0001F910F91FF90EF9008950F931F93DC01F5
:101FC000ED91FC91068CF78DE02D09951F910F91F5
:101FD00008950F931F93DC01ED91FC91048CF58D16
:101FE000E02D09951F910F910895DC01ED91FC9171
:101FF0000084F185E02D09943F924F925F926F9299
:102000007F928F929F92AF92BF92CF92DF92EF9288
:10201000FF920F931F93CF93DF935C017B014A01E3
:102020006901390187E0680E711C93E0759467942B
:102030009A95E1F72B01400E511E10E000E0312C83
:10204000D0E0C0E0CE0187709927330C892B59F47A
:10205000FE0183E0F595E7958A95E1F7E00FF11F22
:10206000E80DF91D349037FE0AC021E030E0A701E9
:10207000B5016C0F7D1F84E093E00E94F50F21965F
:10208000CC16DD06F9F68FEFE81AF80A060D171DD3
:10209000E414F504A9F6DF91CF911F910F91FF9001
:1020A000EF90DF90CF90BF90AF909F908F907F90F8
:1020B0006F905F904F903F9008952F923F924F9274
:1020C0005F926F927F928F929F92AF92BF92CF92C8
:1020D000DF92EF92FF920F931F93CF93DF9300D085
:1020E00000D000D0CDB7DEB73C016A013E832D831E
:1020F000FC82EB825801A41AB50AB7FE03C0B19462
:10210000A194B1088D809E80861A970A97FE03C01D
:102110009194819491088A149B045CF0902F812FF4
:102120000D811E819D838E839C2D8D2D6B01692FCA
:10213000782F0C151D055CF09D818E817E836D834B
:10214000692F782F902F812F8601C92ED82E160146
:10215000201A310A2B012D813E81421A530A57FE63
:1021600003C0519441945108710137FE03C03FEF01
:10217000E31AF30AF594E7948D819E8186179707F9
:102180005CF5A1E0B0E0BA83A983C016D1064CF19A
:10219000D301ED91FC910484F585E02D2B813C81E8
:1021A000A8016D817E818A149B041CF04D815E81A3
:1021B000B801C3010995E418F508F7FE0AC02D819E
:1021C0003E8189819A81280F391F3E832D83E20C3D
:1021D000F31C0F5F1F4FD9CF2FEF3FEF3A832983B7
:1021E000D4CF26960FB6F894DEBF0FBECDBFDF91D9
:1021F000CF911F910F91FF90EF90DF90CF90BF9004
:10220000AF909F908F907F906F905F904F903F9096
:102210002F90089508952091E201260F3327331F50
:1022200021323105ECF420910602FC0190E080E0BF
:10223000243069F082E00895A091E2012191AC017F
:102240004E535E4FA40FB52FB11D2C9301968617E8
:1022500098F38091E201680F6093E20180E00895B5
:1022600081E008951092060281E0809308021092A6
:10227000070261E082E10E94EF0661E083E10E94D3
:10228000EF06E9EBF0E080818E7F808380818D7F97
:10229000808388E48093B80085E48093BC0008952F
:1022A000CF93DF9391E09093C1018823B9F0C0915F
:1022B000B800D091BA008091BC008A7B8093BC00AA
:1022C00060E082E10E94EF0660E083E10E94EF0699
:1022D0000E943211D093BA00C093B800DF91CF9121
:1022E0000895E091370280913602E81730F4F0E06B
:1022F000E456FE4F808190E008958FEF9FEF0895A0
:1023000090913702809136022FEF3FEF981748F4F3
:10231000E92FF0E0E456FE4F208130E09F5F90937C
:102320003702C90108958091360290913702891BC6
:10233000990B0895CF92DF92EF92FF920F931F9324
:10234000CF93DF937C01CB018A01209147022223A6
:1023500089F0EB016B01C40ED51ECC15DD0569F0CB
:102360006991D701ED91FC910190F081E02DC701B9
:102370000995F3CF642F0E940B11C801DF91CF9113
:102380001F910F91FF90EF90DF90CF900895CF9322
:10239000DF931F92CDB7DEB76983209147022223D6
:1023A000F9F020914402203258F021E030E0FC01A5
:1023B0003383228390E080E00F90DF91CF910895E6
:1023C00080914502E82FF0E0E458FE4F9981908318
:1023D0008F5F809345028093440281E090E0ECCFD0
:1023E00061E0CE0101960E940B11F7CFCF92DF92F0
:1023F000EF92FF920F931F93CF93DF93D0914402FC
:1024000081E0D13208F09CC0C09146020E944E0784
:102410006B017C018091060281116CC082E0809387
:10242000060281E0809308028FEF809305021092EC
:102430002A02D0932902ACE7B1E0E9E0F2E080E0C3
:10244000D8138DC010922B0280912B02CC0FC82B79
:10245000C0932B0280910702813009F084C0109252
:1024600007020E944E076B017C0180912B02809332
:10247000BB008091BD019091BE01A091BF01B091C0
:10248000C001892B8A2B8B2BA1F00E944E07009153
:10249000BD011091BE012091BF013091C0016C19A6
:1024A0007D098E099F09061717072807390708F4C1
:1024B00042C08091BC0083FDD8CF85EC8093BC00E6
:1024C0000E944E076B017C0180910602823009F464
:1024D0004CC0809105028F3F09F469C080910502CC
:1024E000803209F466C080910502803309F463C02C
:1024F00084E026C08091BD019091BE01A091BF01F2
:10250000B091C001892B8A2B8B2B09F483CF0E94B9
:102510004E070091BD011091BE012091BF01309185
:10252000C0016C197D098E099F0906171707280736
:10253000390708F06FCF8091BC010E94501185E0EF
:10254000109245021092440210924702DF91CF91FF
:102550001F910F91FF90EF90DF90CF9008959D9184
:1025600091938F5F6DCF85EEA9CF8091BD01909142
:10257000BE01A091BF01B091C001892B8A2B8B2B8A
:1025800009F4A2CF0E944E070091BD011091BE0137
:102590002091BF013091C0016C197D098E099F09FE
:1025A000061717072807390708F08ECFC4CF80E039
:1025B000C7CF82E0C5CF83E0C3CFEF92FF920F93E6
:1025C0001F93CF93DF937C01C62F809121039091BD
:1025D0002203009709F459C02091250331E030937C
:1025E0004702209346021092450210924402DC01F9
:1025F000ED91FC910190F081E02D60E0099587015B
:10260000EE24E394F12CD1E0C1508091210390910C
:102610002203CF3F91F1B0E2EB16F104D8F00E9413
:10262000F611809121039091220320912503D093EC
:102630004702209346021092450210924402DC01A8
:10264000ED91FC910190F081E02D60E00995EE2480
:10265000E394F12C8091210390912203F80164917D
:10266000DC01ED91FC910190F081E02D0995BFEF27
:10267000EB1AFB0A0F5F1F4FC7CFDF91CF911F915E
:102680000F91FF90EF900C94F611E0913103F091CF
:10269000320390818091370380958923808387015D
:1026A000C15008F438C0F801849120911F03309183
:1026B0002003232B29F00E940B0B0F5F1F4FF0CF3D
:1026C00028E030E040E8E0912D03F0912E03909156
:1026D0003503582F5423D9F05081952B9083E091E6
:1026E0002F03F0913003908150913603952B908306
:1026F000E0912F03F0913003508190913603909533
:1027000095239083469521503109E9F6D6CF508123
:1027100090959523E3CFDF91CF911F910F91FF907B
:10272000EF9008951F93CF93DF93EC018D8D9E8DD5
:10273000009721F1162F29A131E030934702209311
:1027400046021092450210924402DC01ED91FC9188
:102750000190F081E02D60E009958D8D9E8DDC016A
:10276000ED91FC910190F081E02D612F09958D8D07
:102770009E8DDF91CF911F910C94F611ADA5BEA552
:102780009C918BA9809589238C938B8D9C8D892B13
:1027900031F0862FDF91CF911F910C940B0B28E025
:1027A00030E080E8A9A5BAA599A9462F4823C1F031
:1027B0004C91942B9C93ABA5BCA59C914AA9942BBE
:1027C0009C93ABA5BCA54C919AA9909594239C93FE
:1027D00086952150310931F7DF91CF911F910895EE
:1027E0004C9190959423E6CF1F93CF93DF93EC0108
:1027F000162F8D8D9E8D892BB1F12DA93EA94FA944
:1028000058AD60E074E284EF90E00E943B202051DC
:1028100031094109510956954795379527952093D8
:10282000B80066EA111167EACE010E9492138D8DFD
:102830009E8D892B41F129AD3AAD4BAD5CAD60E089
:1028400074E284EF90E00E943B202051310941095D
:10285000510956954795379527952093B800DF91F4
:10286000CF911F9108958B8D9C8D892B21F08EAD7A
:102870009FAD0E94120BEFA5F8A990818CA98095BD
:1028800089238083CECFEFA5F8A980819CA9892BCD
:102890008083E5CF90E080E0089520910A03309195
:1028A0000B03C901079697FD079623E09595879539
:1028B0002A95E1F72091080330910903829FA00136
:1028C000839F500D929F500D112470E060E0809125
:1028D0002303909124030C948D210E948821FB01F5
:1028E00001900020E9F73197AF01461B570BDC013F
:1028F000ED91FC910280F381E02D09948F929F92DB
:10290000AF92BF920F931F93CF93DF93CDB7DEB7F4
:10291000A1970FB6F894DEBF0FBECDBF19A242300B
:1029200008F44AE08E010F5D1F4F842E912CB12CCC
:10293000A12CA50194010E943B20E62FB901CA01F8
:10294000EA3004F5E05DD801EE938D01232B242BB2
:10295000252B79F790E080E0109729F0BD0184E005
:1029600093E00E946F14A1960FB6F894DEBF0FBEDD
:10297000CDBFDF91CF911F910F91BF90AF909F90EE
:102980008F900895E95CDFCF4F925F926F927F92B4
:102990008F929F92AF92BF92CF92DF92EF92FF926F
:1029A0000F931F93CF936B017C01742EAC019B019D
:1029B0000E94362066E571E0811126C0460157016C
:1029C000E894B7F82FEF3FEF4FE75FE7C501B40199
:1029D0000E94362081110CC02FEF3FEF4FE75FE7D9
:1029E000C501B4010E946C1E6AE571E0181664F01E
:1029F0002FEF3FEF4FE75FE4C701B6010E94C41F0E
:102A00001816ACF46EE571E084E093E0CF911F916D
:102A10000F91FF90EF90DF90CF90BF90AF909F907D
:102A20008F907F906F905F904F900C946F142FEF6A
:102A30003FEF4FE75FECC701B6010E946C1E87FDB8
:102A4000E1CF20E030E0A901C701B6010E946C1E71
:102A500010E000E087FF0AC06DE284E093E00E948E
:102A6000500D8C01F7FAF094F7F8F094C0E060E0B4
:102A700070E080E09FE37C1641F020E030E040E22F
:102A800051E40E94711ECF5FF6CFA70196010E940C
:102A9000001E2B013C010E94E31E4B015C014AE039
:102AA0000E947E147C01E00EF11ECC23C1F1C50111
:102AB000B4010E94121F9B01AC01C301B2010E942C
:102AC000FF1D4B015C016EE284E093E00E94500D1B
:102AD000E80EF91EC15018F120E030E040E251E468
:102AE000C501B4010E94C91F2B013C010E94E31ED5
:102AF0004B01B12CA12C4AE0C501B4010E947E1407
:102B0000E80EF91EC501B4010E94121F9B01AC0121
:102B1000C301B2010E94FF1D4B015C01DBCFC70165
:102B2000CF911F910F91FF90EF90DF90CF90BF90CA
:102B3000AF909F908F907F906F905F904F9008958F
:102B400085ED8093BC008091BD019091BE01A09164
:102B5000BF01B091C0010796A11DB11D23E0B6953C
:102B6000A795979587952A95D1F72091BC0024FDCC
:102B700003C01092060208954091BD015091BE011C
:102B80006091BF017091C001452B462B472B69F323
:102B90000097A105B10541F025E32A95F1F7000062
:102BA0000197A109B109E1CF8091BC010C945011AA
:102BB0001F920F920FB60F9211242F933F934F93B2
:102BC0005F936F937F938F939F93AF93BF93EF9395
:102BD000FF9388E492E00E943706FF91EF91BF9146
:102BE000AF919F918F917F916F915F914F913F91A5
:102BF0002F910F900FBE0F901F9018951F920F925C
:102C00000FB60F9211242F938F939F93EF93FF93FF
:102C1000E0915802F09159028081E0915E02F091BA
:102C20005F0282FD1BC09081809161028F5F8F7374
:102C300020916202821741F0E0916102F0E0E85BCE
:102C4000FD4F958F80936102FF91EF919F918F913E
:102C50002F910F900FBE0F901F9018958081F4CF89
:102C60001F920F920FB60F9211242F933F938F93C1
:102C70009F93AF93BF938091400290914102A091A6
:102C80004202B091430230912C0223E0230F2D37F2
:102C900058F50196A11DB11D20932C02809340028E
:102CA00090934102A0934202B093430280912D027F
:102CB00090912E02A0912F02B09130020196A11D99
:102CC000B11D80932D0290932E02A0932F02B093FA
:102CD0003002BF91AF919F918F913F912F910F90B3
:102CE0000FBE0F901F90189526E8230F0296A11D86
:102CF000B11DD2CF1F920F920FB60F9211242F93B6
:102D00003F934F935F936F937F938F939F93AF9373
:102D1000BF93EF93FF938091B900887F803609F4C9
:102D20004AC0F0F5883209F4A7C018F5803109F4DB
:102D30009BC0B8F4882309F4F9C0883009F494C022
:102D4000FF91EF91BF91AF919F918F917F916F9183
:102D50005F914F913F912F910F900FBE0F901F9059
:102D60001895883109F488C0803251F780930502A4
:102D700014C0803409F49DC040F48033B9F3883323
:102D8000F9F68093050285ECB0C0803509F485C062
:102D9000883509F496C0883499F60E94A015D0CFE2
:102DA000883909F48CC038F5883729F050F4883612
:102DB00011F0803729F683E0809306021092040216
:102DC00057C0883809F47BC0803919F0803809F081
:102DD000B7CF80910402803208F071C0E091040204
:102DE00081E08E0F809304028091BB00F0E0EC51F3
:102DF000FE4F80833DC0803B39F0E0F4803A09F417
:102E000079C0883A09F09CCF84E080930602109242
:102E1000E3011092E201E0913402F091350209954C
:102E20008091E20181110FC081E08093E201109254
:102E3000C20109C0803C09F4A6CF883C09F4A3CFA5
:102E4000883B09F07DCFE091E30181E08E0F809314
:102E5000E301F0E0EE53FE4F80818093BB00909140
:102E6000E3018091E20129C080912B028093BB0095
:102E700085EC8093BC0064CF90912A028091290256
:102E8000981758F5E0912A0281E08E0F80932A026C
:102E9000F0E0E75FFD4F8081E9CFE0912A0281E019
:102EA0008E0F80932A028091BB00F0E0E75FFD4F18
:102EB000808390912A02809129029817C8F285E8B0
:102EC000D8CFE0912A0281E08E0F80932A02809170
:102ED000BB00F0E0E75FFD4F808380910802811125
:102EE0005CCF81E08093070284EA8093BC0010925B
:102EF000060226CF85EC8093BC00109206028091DA
:102F00000402803230F4E0910402F0E0EC51FE4F14
:102F100010826091040270E0E0913202F09133027D
:102F200084EE91E00995109204020ACF10920502F6
:102F300034CFE8E4F2E01382128248EE53E060E01E
:102F400070E044835583668377838AE091E09183C0
:102F5000808385EC90E09587848784EC90E0978768
:102F6000868780EC90E0918B808B81EC90E0938B56
:102F7000828B82EC90E0958B848B86EC90E0978B33
:102F8000868B118E128E138E148EA8EFB2E01396DC
:102F90001C921E92129714964D935D936D937C93A1
:102FA00017978CE191E011969C938E93E4E0F3E007
:102FB0001382128220E830E03583248380E490E09D
:102FC000978386833187208793878287168A158621
:102FD00014861786168681E0858B848B2FEF3FEF52
:102FE000338B228B318B208B878B108E128E118E20
:102FF0008EE291E091838083148E138EB68FA58F1D
:1030000010A2178E8FEF84A385A386A387A380A722
:1030100080E89AE1A6E0B0E085AB96ABA7ABB0AF95
:1030200080EA96E8A1E0B0E081AF92AFA3AFB4AF81
:1030300080E586AF17AEA5EEB2E08EE015968C93D4
:1030400015978BE016968C931697EDE9FAE0E491CC
:103050001796EC931797E9E8FAE0E4911896EC9349
:10306000189740E85EE360E070E01D964D935D9335
:103070006D937C9350970895789484B5826084BD55
:1030800084B5816084BD85B5826085BD85B581606C
:1030900085BD80916E00816080936E0010928100EA
:1030A00080918100826080938100809181008160A5
:1030B0008093810080918000816080938000809166
:1030C000B10084608093B1008091B00081608093F2
:1030D000B00080917A00846080937A0080917A00B9
:1030E000826080937A0080917A00816080937A0078
:1030F00080917A00806880937A001092C100E091FC
:103100005802F091590282E08083E0915402F091DC
:1031100055021082E0915602F09157028FEC8083A5
:1031200010926002E0915C02F0915D0286E0808383
:10313000E0915A02F0915B02808180618083E0918E
:103140005A02F0915B02808188608083E0915A028C
:10315000F0915B02808180688083E0915A02F09157
:103160005B0280818F7D8083809123039091240373
:10317000892B11F10E944D1420910A0330910B0309
:103180008091080390910903213231050CF04AC067
:10319000B9016052710977FF02C06F5F7F4F75956B
:1031A00067958357910997FD019600E210E023E7A8
:1031B00030E04EE955E049C020910A0330910B03FD
:1031C000C901079697FD0796B3E095958795BA953F
:1031D000E1F72091080330910903AC01429FC0013F
:1031E000439F900D529F900D11240E946320909355
:1031F000240380932303892B09F0BCCFCEE3DAE0CC
:10320000FE016491662339F088E492E00E94590639
:103210002196892BA9F762E671E088E492E00E948A
:103220006F14FFCFB9016054710977FF02C06F5F5F
:103230007F4F759567958255910997FD019600E43A
:1032400010E022E530E04EE757E0959587950E9423
:10325000FC0F82E08093260380912103909122034A
:10326000892B09F42AC18CE380932503109237023D
:103270001092360210924502109244020E943211BE
:1032800087EB95E0909335028093340288EB95E0CC
:10329000909333028093320280912C0387FD1EC0ED
:1032A00061E00E941D0761E080912C030E94EF06FF
:1032B00061E070E080E090E00E94730760E0809140
:1032C0002C030E94EF066AE070E080E090E00E942C
:1032D000730761E080912C030E94EF068091210327
:1032E00090912203892B09F4A7C1209139033091D1
:1032F0003A0340913B0350913C0360E074E284EF59
:1033000090E00E943B202051310941095109569516
:103310004795379527952093B80064E080E995E0BC
:103320000E94DD1260910A03615084E093E00E94E4
:10333000921364E08CE895E00E94DD1280912603F0
:1033400060E1813009F064E184E093E00E9492132F
:1033500064E088E895E00E94DD128FE880934103E5
:1033600080910803909109038038910509F07DC18F
:1033700080910A0390910B038034910509F085C177
:1033800080912603813009F06EC18FE9809341035B
:10339000C2E16AED84E093E00E9492136C2F84E016
:1033A00093E00E94921361E884E093E00E949213FC
:1033B0006091410384E093E00E94921369ED84E000
:1033C00093E00E9492138091260362E2813009F01B
:1033D00061EF84E093E00E94921366E082E895E05A
:1033E0000E94DD128091210390912203892B09F420
:1033F00050C120913D0330913E0340913F035091D5
:10340000400360E074E284EF90E00E943B20205192
:1034100031094109510956954795379527952093CC
:10342000B8000E944D1462E08091EA020E941D07DC
:103430002FB7F8948091400290914102A0914202EE
:10344000B09143022FBF805D9740A109B1098093DD
:10345000EE029093EF02A093F002B093F10287E3A3
:103460008093F70262E083E00E941D0761E084E040
:103470000E941D0760E084E00E94EF06812CB4E208
:103480009B2EB4EFAB2EB12C66246394712C0E945A
:10349000A507882359F08091EB028B3038F08D30EE
:1034A00008F401C18551823008F42EC1212C312C41
:1034B000A0EC4A2EAFE75A2E14C161E080912A0396
:1034C0000E941D0761E080912B030E941D078091DF
:1034D0002A03082E000C990BFC01E558F54FE491E6
:1034E000F0E0EE0FFF1FEC56FA4F25913491309328
:1034F000320320933103FC01E157F54FE491E0934F
:10350000370380912B03082E000C990BFC01E55822
:10351000F54FE491F0E0EE0FFF1FEC56FA4FA59146
:10352000B491B0933403A0933303FC01E157F54FFA
:10353000E491E09338038C91E82BEC9380911F0386
:1035400090912003892B09F434C0CFB7F89480916F
:103550003102811127C0E5E8FAE08491E9E9FAE057
:103560009491E82FF0E0EE0FFF1FE858FA4FA59175
:10357000B491EC91E92321F461E08AE00E94EF0626
:1035800061E08AE00E941D078CB580618CBD8CB51E
:1035900080648CBD61E08DE00E941D0761E08BE0DE
:1035A0000E941D07809131028F5F80933102CFBF4F
:1035B00073CE61E0809128030E941D0761E0809135
:1035C00029030E941D0780912803082E000C990BE7
:1035D000FC01E558F54FE491F0E0EE0FFF1FEC56CB
:1035E000FA4F2591349130932E0320932D03FC0143
:1035F000E157F54FE491E093350380912903082EBC
:10360000000C990BFC01E558F54FE491F0E0EE0F4A
:10361000FF1FEC56FA4FA591B491B0933003A093DD
:103620002F03FC01E157F54FE491E09336038C91B1
:10363000E095E823EC9330CE80911F039091200316
:10364000892B31F080914203909143030E94120B29
:10365000E0913303F0913403908180913803809599
:10366000892380835ACE8FEC91CE8036910569F400
:1036700080910A0390910B03409739F480912603BF
:10368000813029F480E180934103C2E082CE8FEA49
:10369000FACFE0913303F0913403808190913803A5
:1036A000892B8083BECE6091E60270E090E080E0DE
:1036B0000E94141F2DEC3CEC4CEC5DE30E94C91FF2
:1036C0006B017C016091E50270E090E080E00E9477
:1036D000141F9B01AC01C701B6010E94001E1B0113
:1036E0002C010E94A507882341F08091EB028C30C9
:1036F00009F4A6C1D8F48B3091F1C12CD12CE0ECA7
:10370000EE2EEFE7FE2E55C06091E5027091E602C5
:1037100076276727762790E080E00E94121F2DEC25
:103720003CEC4CEC5DE30E94C91FD9CF855182303F
:1037300020F7C091E7026C2F70E0762F662766278E
:103740007F778091E802682B90E080E00E94121F52
:103750002DEC3CEC4CEC5DE30E94C91F8DC16091E7
:10376000E70270E090E080E00E94121F6B017C0194
:10377000C091E802C7FF0AC0AC019B0160E070E0A5
:1037800080E89FEB0E94FF1D6B017C01CF706C2FC6
:1037900070E090E080E00E94141F2DEC3CEC4CECBB
:1037A0005DE30E94C91FA70196010E94001E6B01E4
:1037B0007C01EBE5FAE08491E2E9FAE0D491EEE7EE
:1037C000FAE0C49130E020E0CC2399F081110E940E
:1037D000C606EC2FF0E0EE0FFF1FEF58F54FA59156
:1037E000B4918C91D82391E080E009F490E0292FE6
:1037F000382F80913F028217130699F04FB7F89443
:103800008091400290914102A0914202B091430206
:103810004FBF80933B0290933C02A0933D02B09334
:103820003E024FB7F8948091400290914102A091DE
:103830004202B09143024FBF40913B0250913C0283
:1038400060913D0270913E02841B950BA60BB70B55
:10385000C397A105B105D0F080913A0282171306F3
:10386000A9F0809138029091390241E0211531058B
:1038700009F440E040933A022115310539F4892BCF
:1038800009F003C1709239026092380221702093CE
:103890003F020E944D1482E0809318038093190325
:1038A00070921703609216037092150360921403CE
:1038B000109211031092100310921303109212032E
:1038C0008091380290913902892B09F0E3C065E6B6
:1038D00071E084E093E00E946F1410921103109243
:1038E000100344E150E0509313034093120342E06D
:1038F000C701B6010E94C4146CE671E084E093E055
:103900000E946F1462E671E084E093E00E946F14FD
:103910008091210390912203892B09F4D3C0209137
:10392000390330913A0340913B0350913C03C50168
:10393000B4010E943B20205131094109510956959B
:103940004795379527952093B80065E08CE69AE077
:103950000E94DD1260910803615084E093E00E94B0
:10396000921320910A0330910B03C901079697FD2A
:10397000079623E0959587952A95E1F7209108030E
:1039800030910903829F7001839FF00C929FF00C8D
:103990001124C0912303D09124038091210390919D
:1039A0002203EC0EFD1E009709F4CFC020912503E1
:1039B000A1E0A09347022093460210924502109284
:1039C0004402DC01ED91FC910190F081E02D60E476
:1039D000099501E010E08091210390912203EC16FB
:1039E000FD0609F486C000321105D8F00E94F611D8
:1039F000809121039091220320912503B1E0B0939F
:103A00004702209346021092450210924402DC01C4
:103A1000ED91FC910190F081E02D60E4099501E0C9
:103A200010E080912103909122036991DC01ED91D6
:103A3000FC910190F081E02D09950F5F1F4FCBCFD6
:103A4000C091E7026C2F70E090E080E00E94121FAE
:103A50006B017C016091E8026F7070E090E080E0A3
:103A60000E94141F2DEC3CEC4CEC5DE30E94C91F3E
:103A7000A70196010E94001E6B017C01C7FF99CE31
:103A8000F7FAF094F7F8F09494CE1092390210926D
:103A90003802FCCE6EE671E084E093E00E946F1481
:103AA000109211031092100384E190E0909313039D
:103AB0008093120342E0C201B1010E94C41469E77D
:103AC00071E01CCF80911F0390912003892B31F06E
:103AD00080914203909143030E94120BE0913303C3
:103AE000F0913403908180913803809589238083FD
:103AF0002CCF0E94F6118091210390912203892BF3
:103B000009F464C020913D0330913E0340913F038E
:103B100050914003C501B4010E943B20205131095E
:103B20004109510956954795379527952093B80037
:103B3000E0E0F0E0EF2B09F4AACC0E9423068823F2
:103B400009F4A5CC0E940000A2CCE0913103F091D1
:103B50003203808190913703892B8083EC16FD0618
:103B600051F2899120911F0330912003232B19F0EA
:103B70000E940B0BF3CF28E030E090E8E0912D039A
:103B8000F0912E0340913503582F5923D9F05081DD
:103B9000452B4083E0912F03F091300340815091F9
:103BA0003603452B4083E0912F03F0913003508181
:103BB0004091360340954523408396952150310925
:103BC000E9F6CCCF508140954523E3CFE091330314
:103BD000F0913403808190913803892B8083A8CFA2
:103BE0008EE291E090930503809304038091230378
:103BF00090912403009711F00C94FF2008955058E1
:103C0000BB27AA270E94171E0C948A1F0E947C1FA4
:103C100038F00E94831F20F039F49F3F19F426F4F6
:103C20000C94791F0EF4E095E7FB0C94731FE92FB9
:103C30000E949B1F58F3BA17620773078407950702
:103C400020F079F4A6F50C94BD1F0EF4E0950B2E30
:103C5000BA2FA02D0B01B90190010C01CA01A001DE
:103C60001124FF27591B99F0593F50F4503E68F139
:103C70001A16F040A22F232F342F4427585FF3CF7A
:103C8000469537952795A795F0405395C9F77EF44B
:103C90001F16BA0B620B730B840BBAF09150A1F094
:103CA000FF0FBB1F661F771F881FC2F70EC0BA0F1A
:103CB000621F731F841F48F4879577956795B795A2
:103CC000F7959E3F08F0B0CF9395880F08F099279D
:103CD000EE0F9795879508950E944F1F08F481E095
:103CE00008950E94851E0C948A1F0E94831F58F01D
:103CF0000E947C1F40F029F45F3F29F00C94731F51
:103D000051110C94BE1F0C94791F0E949B1F68F3E5
:103D10009923B1F3552391F3951B550BBB27AA2784
:103D200062177307840738F09F5F5F4F220F331FBE
:103D3000441FAA1FA9F335D00E2E3AF0E0E832D086
:103D400091505040E695001CCAF72BD0FE2F29D089
:103D5000660F771F881FBB1F261737074807AB075B
:103D6000B0E809F0BB0B802DBF01FF2793585F4FD0
:103D70003AF09E3F510578F00C94731F0C94BE1FCF
:103D80005F3FE4F3983ED4F3869577956795B795B2
:103D9000F7959F5FC9F7880F911D9695879597F9BD
:103DA0000895E1E0660F771F881FBB1F6217730736
:103DB0008407BA0720F0621B730B840BBA0BEE1F4B
:103DC00088F7E09508950E94A31F88F09F5798F008
:103DD000B92F9927B751B0F0E1F0660F771F881F10
:103DE000991F1AF0BA95C9F714C0B13091F00E942A
:103DF000BD1FB1E008950C94BD1F672F782F882751
:103E0000B85F39F0B93FCCF3869577956795B39550
:103E1000D9F73EF490958095709561957F4F8F4FBF
:103E20009F4F0895E89409C097FB3EF490958095C4
:103E3000709561957F4F8F4F9F4F9923A9F0F92F70
:103E400096E9BB279395F695879577956795B795EE
:103E5000F111F8CFFAF4BB0F11F460FF1BC06F5FD4
:103E60007F4F8F4F9F4F16C0882311F096E911C0E6
:103E7000772321F09EE8872F762F05C0662371F007
:103E800096E8862F70E060E02AF09A95660F771F1B
:103E9000881FDAF7880F9695879597F90895990FF7
:103EA0000008550FAA0BE0E8FEEF16161706E80704
:103EB000F907C0F012161306E407F50798F0621B25
:103EC000730B840B950B39F40A2661F0232B242BFA
:103ED000252B21F408950A2609F4A140A6958FEF19
:103EE000811D811D089597F99F6780E870E060E06B
:103EF00008959FEF80EC089500240A941616170683
:103F000018060906089500240A94121613061406CA
:103F100005060895092E0394000C11F4882352F02D
:103F2000BB0F40F4BF2B11F460FF04C06F5F7F4FE5
:103F30008F4F9F4F089557FD9058440F551F59F0CC
:103F40005F3F71F04795880F97FB991F61F09F3F86
:103F500079F087950895121613061406551FF2CFAF
:103F60004695F1DF08C0161617061806991FF1CFFF
:103F700086957105610508940895E894BB27662726
:103F80007727CB0197F908950E944F1F08F48FEF10
:103F900008950E94DC1F0C948A1F0E947C1F38F039
:103FA0000E94831F20F0952311F00C94731F0C9432
:103FB000791F11240C94BE1F0E949B1F70F3959FC4
:103FC000C1F3950F50E0551F629FF001729FBB2710
:103FD000F00DB11D639FAA27F00DB11DAA1F649FAC
:103FE0006627B00DA11D661F829F2227B00DA11D5F
:103FF000621F739FB00DA11D621F839FA00D611DE5
:10400000221F749F3327A00D611D231F849F600D05
:10401000211D822F762F6A2F11249F5750409AF02E
:10402000F1F088234AF0EE0FFF1FBB1F661F771FBA
:10403000881F91505040A9F79E3F510580F00C9485
:10404000731F0C94BE1F5F3FE4F3983ED4F3869534
:1040500077956795B795F795E7959F5FC1F7FE2B25
:10406000880F911D9695879597F908950E944F1F87
:10407000880B990B0895A1E21A2EAA1BBB1BFD0108
:104080000DC0AA1FBB1FEE1FFF1FA217B307E40737
:10409000F50720F0A21BB30BE40BF50B661F771F8F
:1040A000881F991F1A9469F760957095809590956F
:1040B0009B01AC01BD01CF010895EE0FFF1F0590DC
:1040C000F491E02D09940F931F93CF93DF938230E7
:1040D000910510F482E090E0E0914603F0914703EF
:1040E00030E020E0B0E0A0E0309799F421153105F0
:1040F00009F44AC0281B390B24303105D8F58A81D0
:104100009B816115710589F1FB0193838283FE0117
:1041100011C0408151810281138148175907E0F095
:104120004817590799F4109761F012960C9312975B
:1041300013961C933296CF01DF91CF911F910F916F
:1041400008950093460310934703F4CF21153105DA
:1041500051F04217530738F0A901DB019A01BD0164
:10416000DF01F801C1CFEF01F9CF909347038093AE
:104170004603CDCFFE01E20FF31F819391932250AE
:10418000310939832883D7CF2091440330914503E7
:10419000232B41F420910201309103013093450318
:1041A0002093440320910001309101012115310534
:1041B00041F42DB73EB74091040150910501241BF5
:1041C000350BE0914403F0914503E217F307A0F4A7
:1041D0002E1B3F0B2817390778F0AC014E5F5F4F5D
:1041E0002417350748F04E0F5F1F50934503409347
:1041F0004403819391939FCFF0E0E0E09CCFCF9375
:10420000DF930097E9F0FC01329713821282A091AC
:104210004603B0914703ED0130E020E01097A1F490
:1042200020813181820F931F2091440330914503F7
:104230002817390709F061C0F0934503E093440360
:10424000DF91CF910895EA01CE17DF07E8F54A81A3
:104250005B819E0141155105B1F7E901FB83EA83BA
:1042600049915991C40FD51FEC17FD0761F4808166
:1042700091810296840F951FE90199838883828139
:1042800093819B838A83F0E0E0E012968D919C916C
:1042900013970097B9F52D913C911197CD01029696
:1042A000820F931F2091440330914503281739074B
:1042B00039F6309751F51092470310924603B093A8
:1042C0004503A0934403BCCFD383C2834081518173
:1042D000840F951FC817D90761F44E5F5F4F88811F
:1042E0009981480F591F518340838A819B81938311
:1042F00082832115310509F0B0CFF0934703E09395
:1043000046039ECFFD01DC01C0CF13821282D7CFBE
:1043100081E090E0F8940C949421DC0101C06D934D
:1043200041505040E0F7089515E0C3E5D5E004C0E2
:10433000FE010E945D202196C435D107C9F7F8948B
:10434000FFCF000048038000000000005906B905B7
:10435000E605A6061706F505090600000000C711C8
:104360009A114A147E05931180117111000000000A
:10437000500DB9054A140A115B0A7E05F50FCD0FE1
:10438000E90FDD0F5D107E05160BF413CB09140A3F
:10439000160FF90E810E220E6E616E00696E6600B8
:1043A0006F7666000D0A0054656D703A2000430078
:0E43B00057696C676F746E6F3A20002500002D
:107E0000112484B714BE81FFF0D085E080938100F7
:107E100082E08093C00088E18093C10086E0809377
:107E2000C20080E18093C4008EE0C9D0259A86E02C
:107E300020E33CEF91E0309385002093840096BBD3
:107E4000B09BFECF1D9AA8958150A9F7CC24DD24C4
:107E500088248394B5E0AB2EA1E19A2EF3E0BF2EE7
:107E6000A2D0813461F49FD0082FAFD0023811F036
:107E7000013811F484E001C083E08DD089C08234E0
:107E800011F484E103C0853419F485E0A6D080C0E4
:107E9000853579F488D0E82EFF2485D0082F10E0AE
:107EA000102F00270E291F29000F111F8ED06801E7
:107EB0006FC0863521F484E090D080E0DECF843638
:107EC00009F040C070D06FD0082F6DD080E0C81688
:107ED00080E7D80618F4F601B7BEE895C0E0D1E017
:107EE00062D089930C17E1F7F0E0CF16F0E7DF06D8
:107EF00018F0F601B7BEE89568D007B600FCFDCFD4
:107F0000A601A0E0B1E02C9130E011968C91119780
:107F100090E0982F8827822B932B1296FA010C0160
:107F200087BEE89511244E5F5F4FF1E0A038BF0790
:107F300051F7F601A7BEE89507B600FCFDCF97BE46
:107F4000E89526C08437B1F42ED02DD0F82E2BD052
:107F50003CD0F601EF2C8F010F5F1F4F84911BD097
:107F6000EA94F801C1F70894C11CD11CFA94CF0C13
:107F7000D11C0EC0853739F428D08EE10CD085E9AC
:107F80000AD08FE07ACF813511F488E018D01DD067
:107F900080E101D065CF982F8091C00085FFFCCF94
:107FA0009093C60008958091C00087FFFCCF809118
:107FB000C00084FD01C0A8958091C6000895E0E648
:107FC000F0E098E1908380830895EDDF803219F02E
:107FD00088E0F5DFFFCF84E1DECF1F93182FE3DFCA
:107FE0001150E9F7F2DF1F91089580E0E8DFEE27F6
:047FF000FF270994CA
:027FFE00040479
:00000001FF
